{
  "_format": "hh-sol-artifact-1",
  "contractName": "AuditCertificateNFT",
  "sourceName": "contracts/ERC721.sol",
  "abi": [
    {
      "inputs": [
        {
          "internalType": "address",
          "name": "initialOwner",
          "type": "address"
        }
      ],
      "stateMutability": "nonpayable",
      "type": "constructor"
    },
    {
      "inputs": [
        {
          "internalType": "address",
          "name": "sender",
          "type": "address"
        },
        {
          "internalType": "uint256",
          "name": "tokenId",
          "type": "uint256"
        },
        {
          "internalType": "address",
          "name": "owner",
          "type": "address"
        }
      ],
      "name": "ERC721IncorrectOwner",
      "type": "error"
    },
    {
      "inputs": [
        {
          "internalType": "address",
          "name": "operator",
          "type": "address"
        },
        {
          "internalType": "uint256",
          "name": "tokenId",
          "type": "uint256"
        }
      ],
      "name": "ERC721InsufficientApproval",
      "type": "error"
    },
    {
      "inputs": [
        {
          "internalType": "address",
          "name": "approver",
          "type": "address"
        }
      ],
      "name": "ERC721InvalidApprover",
      "type": "error"
    },
    {
      "inputs": [
        {
          "internalType": "address",
          "name": "operator",
          "type": "address"
        }
      ],
      "name": "ERC721InvalidOperator",
      "type": "error"
    },
    {
      "inputs": [
        {
          "internalType": "address",
          "name": "owner",
          "type": "address"
        }
      ],
      "name": "ERC721InvalidOwner",
      "type": "error"
    },
    {
      "inputs": [
        {
          "internalType": "address",
          "name": "receiver",
          "type": "address"
        }
      ],
      "name": "ERC721InvalidReceiver",
      "type": "error"
    },
    {
      "inputs": [
        {
          "internalType": "address",
          "name": "sender",
          "type": "address"
        }
      ],
      "name": "ERC721InvalidSender",
      "type": "error"
    },
    {
      "inputs": [
        {
          "internalType": "uint256",
          "name": "tokenId",
          "type": "uint256"
        }
      ],
      "name": "ERC721NonexistentToken",
      "type": "error"
    },
    {
      "inputs": [
        {
          "internalType": "address",
          "name": "owner",
          "type": "address"
        }
      ],
      "name": "OwnableInvalidOwner",
      "type": "error"
    },
    {
      "inputs": [
        {
          "internalType": "address",
          "name": "account",
          "type": "address"
        }
      ],
      "name": "OwnableUnauthorizedAccount",
      "type": "error"
    },
    {
      "anonymous": false,
      "inputs": [
        {
          "indexed": true,
          "internalType": "address",
          "name": "owner",
          "type": "address"
        },
        {
          "indexed": true,
          "internalType": "address",
          "name": "approved",
          "type": "address"
        },
        {
          "indexed": true,
          "internalType": "uint256",
          "name": "tokenId",
          "type": "uint256"
        }
      ],
      "name": "Approval",
      "type": "event"
    },
    {
      "anonymous": false,
      "inputs": [
        {
          "indexed": true,
          "internalType": "address",
          "name": "owner",
          "type": "address"
        },
        {
          "indexed": true,
          "internalType": "address",
          "name": "operator",
          "type": "address"
        },
        {
          "indexed": false,
          "internalType": "bool",
          "name": "approved",
          "type": "bool"
        }
      ],
      "name": "ApprovalForAll",
      "type": "event"
    },
    {
      "anonymous": false,
      "inputs": [
        {
          "indexed": false,
          "internalType": "uint256",
          "name": "_fromTokenId",
          "type": "uint256"
        },
        {
          "indexed": false,
          "internalType": "uint256",
          "name": "_toTokenId",
          "type": "uint256"
        }
      ],
      "name": "BatchMetadataUpdate",
      "type": "event"
    },
    {
      "anonymous": false,
      "inputs": [
        {
          "indexed": false,
          "internalType": "uint256",
          "name": "_tokenId",
          "type": "uint256"
        }
      ],
      "name": "MetadataUpdate",
      "type": "event"
    },
    {
      "anonymous": false,
      "inputs": [
        {
          "indexed": true,
          "internalType": "address",
          "name": "previousOwner",
          "type": "address"
        },
        {
          "indexed": true,
          "internalType": "address",
          "name": "newOwner",
          "type": "address"
        }
      ],
      "name": "OwnershipTransferred",
      "type": "event"
    },
    {
      "anonymous": false,
      "inputs": [
        {
          "indexed": true,
          "internalType": "address",
          "name": "from",
          "type": "address"
        },
        {
          "indexed": true,
          "internalType": "address",
          "name": "to",
          "type": "address"
        },
        {
          "indexed": true,
          "internalType": "uint256",
          "name": "tokenId",
          "type": "uint256"
        }
      ],
      "name": "Transfer",
      "type": "event"
    },
    {
      "inputs": [
        {
          "internalType": "address",
          "name": "to",
          "type": "address"
        },
        {
          "internalType": "uint256",
          "name": "tokenId",
          "type": "uint256"
        }
      ],
      "name": "approve",
      "outputs": [],
      "stateMutability": "nonpayable",
      "type": "function"
    },
    {
      "inputs": [
        {
          "internalType": "address",
          "name": "owner",
          "type": "address"
        }
      ],
      "name": "balanceOf",
      "outputs": [
        {
          "internalType": "uint256",
          "name": "",
          "type": "uint256"
        }
      ],
      "stateMutability": "view",
      "type": "function"
    },
    {
      "inputs": [
        {
          "internalType": "uint256",
          "name": "tokenId",
          "type": "uint256"
        }
      ],
      "name": "getApproved",
      "outputs": [
        {
          "internalType": "address",
          "name": "",
          "type": "address"
        }
      ],
      "stateMutability": "view",
      "type": "function"
    },
    {
      "inputs": [
        {
          "internalType": "address",
          "name": "owner",
          "type": "address"
        },
        {
          "internalType": "address",
          "name": "operator",
          "type": "address"
        }
      ],
      "name": "isApprovedForAll",
      "outputs": [
        {
          "internalType": "bool",
          "name": "",
          "type": "bool"
        }
      ],
      "stateMutability": "view",
      "type": "function"
    },
    {
      "inputs": [
        {
          "internalType": "address",
          "name": "recipient",
          "type": "address"
        },
        {
          "internalType": "string",
          "name": "metadataURI",
          "type": "string"
        }
      ],
      "name": "issueCertificate",
      "outputs": [],
      "stateMutability": "nonpayable",
      "type": "function"
    },
    {
      "inputs": [],
      "name": "name",
      "outputs": [
        {
          "internalType": "string",
          "name": "",
          "type": "string"
        }
      ],
      "stateMutability": "view",
      "type": "function"
    },
    {
      "inputs": [],
      "name": "owner",
      "outputs": [
        {
          "internalType": "address",
          "name": "",
          "type": "address"
        }
      ],
      "stateMutability": "view",
      "type": "function"
    },
    {
      "inputs": [
        {
          "internalType": "uint256",
          "name": "tokenId",
          "type": "uint256"
        }
      ],
      "name": "ownerOf",
      "outputs": [
        {
          "internalType": "address",
          "name": "",
          "type": "address"
        }
      ],
      "stateMutability": "view",
      "type": "function"
    },
    {
      "inputs": [],
      "name": "renounceOwnership",
      "outputs": [],
      "stateMutability": "nonpayable",
      "type": "function"
    },
    {
      "inputs": [
        {
          "internalType": "address",
          "name": "from",
          "type": "address"
        },
        {
          "internalType": "address",
          "name": "to",
          "type": "address"
        },
        {
          "internalType": "uint256",
          "name": "tokenId",
          "type": "uint256"
        }
      ],
      "name": "safeTransferFrom",
      "outputs": [],
      "stateMutability": "nonpayable",
      "type": "function"
    },
    {
      "inputs": [
        {
          "internalType": "address",
          "name": "from",
          "type": "address"
        },
        {
          "internalType": "address",
          "name": "to",
          "type": "address"
        },
        {
          "internalType": "uint256",
          "name": "tokenId",
          "type": "uint256"
        },
        {
          "internalType": "bytes",
          "name": "data",
          "type": "bytes"
        }
      ],
      "name": "safeTransferFrom",
      "outputs": [],
      "stateMutability": "nonpayable",
      "type": "function"
    },
    {
      "inputs": [
        {
          "internalType": "address",
          "name": "operator",
          "type": "address"
        },
        {
          "internalType": "bool",
          "name": "approved",
          "type": "bool"
        }
      ],
      "name": "setApprovalForAll",
      "outputs": [],
      "stateMutability": "nonpayable",
      "type": "function"
    },
    {
      "inputs": [
        {
          "internalType": "bytes4",
          "name": "interfaceId",
          "type": "bytes4"
        }
      ],
      "name": "supportsInterface",
      "outputs": [
        {
          "internalType": "bool",
          "name": "",
          "type": "bool"
        }
      ],
      "stateMutability": "view",
      "type": "function"
    },
    {
      "inputs": [],
      "name": "symbol",
      "outputs": [
        {
          "internalType": "string",
          "name": "",
          "type": "string"
        }
      ],
      "stateMutability": "view",
      "type": "function"
    },
    {
      "inputs": [],
      "name": "tokenId",
      "outputs": [
        {
          "internalType": "uint256",
          "name": "",
          "type": "uint256"
        }
      ],
      "stateMutability": "view",
      "type": "function"
    },
    {
      "inputs": [
        {
          "internalType": "uint256",
          "name": "tokenId",
          "type": "uint256"
        }
      ],
      "name": "tokenURI",
      "outputs": [
        {
          "internalType": "string",
          "name": "",
          "type": "string"
        }
      ],
      "stateMutability": "view",
      "type": "function"
    },
    {
      "inputs": [
        {
          "internalType": "address",
          "name": "from",
          "type": "address"
        },
        {
          "internalType": "address",
          "name": "to",
          "type": "address"
        },
        {
          "internalType": "uint256",
          "name": "tokenId",
          "type": "uint256"
        }
      ],
      "name": "transferFrom",
      "outputs": [],
      "stateMutability": "nonpayable",
      "type": "function"
    },
    {
      "inputs": [
        {
          "internalType": "address",
          "name": "newOwner",
          "type": "address"
        }
      ],
      "name": "transferOwnership",
      "outputs": [],
      "stateMutability": "nonpayable",
      "type": "function"
    }
  ],
  "bytecode": "0x608060405234801561001057600080fd5b50604051612c85380380612c8583398181016040528101906100329190610272565b806040518060400160405280601081526020017f41756469744365727469666963617465000000000000000000000000000000008152506040518060400160405280600881526020017f41554449544e465400000000000000000000000000000000000000000000000081525081600090816100ae91906104ef565b5080600190816100be91906104ef565b505050600073ffffffffffffffffffffffffffffffffffffffff168173ffffffffffffffffffffffffffffffffffffffff16036101335760006040517f1e4fbdf700000000000000000000000000000000000000000000000000000000815260040161012a91906105d0565b60405180910390fd5b6101428161014960201b60201c565b50506105eb565b6000600760009054906101000a900473ffffffffffffffffffffffffffffffffffffffff16905081600760006101000a81548173ffffffffffffffffffffffffffffffffffffffff021916908373ffffffffffffffffffffffffffffffffffffffff1602179055508173ffffffffffffffffffffffffffffffffffffffff168173ffffffffffffffffffffffffffffffffffffffff167f8be0079c531659141344cd1fd0a4f28419497f9722a3daafe3b4186f6b6457e060405160405180910390a35050565b600080fd5b600073ffffffffffffffffffffffffffffffffffffffff82169050919050565b600061023f82610214565b9050919050565b61024f81610234565b811461025a57600080fd5b50565b60008151905061026c81610246565b92915050565b6000602082840312156102885761028761020f565b5b60006102968482850161025d565b91505092915050565b600081519050919050565b7f4e487b7100000000000000000000000000000000000000000000000000000000600052604160045260246000fd5b7f4e487b7100000000000000000000000000000000000000000000000000000000600052602260045260246000fd5b6000600282049050600182168061032057607f821691505b602082108103610333576103326102d9565b5b50919050565b60008190508160005260206000209050919050565b60006020601f8301049050919050565b600082821b905092915050565b60006008830261039b7fffffffffffffffffffffffffffffffffffffffffffffffffffffffffffffffff8261035e565b6103a5868361035e565b95508019841693508086168417925050509392505050565b6000819050919050565b6000819050919050565b60006103ec6103e76103e2846103bd565b6103c7565b6103bd565b9050919050565b6000819050919050565b610406836103d1565b61041a610412826103f3565b84845461036b565b825550505050565b600090565b61042f610422565b61043a8184846103fd565b505050565b5b8181101561045e57610453600082610427565b600181019050610440565b5050565b601f8211156104a35761047481610339565b61047d8461034e565b8101602085101561048c578190505b6104a06104988561034e565b83018261043f565b50505b505050565b600082821c905092915050565b60006104c6600019846008026104a8565b1980831691505092915050565b60006104df83836104b5565b9150826002028217905092915050565b6104f88261029f565b67ffffffffffffffff811115610511576105106102aa565b5b61051b8254610308565b610526828285610462565b600060209050601f8311600181146105595760008415610547578287015190505b61055185826104d3565b8655506105b9565b601f19841661056786610339565b60005b8281101561058f5784890151825560018201915060208501945060208101905061056a565b868310156105ac57848901516105a8601f8916826104b5565b8355505b6001600288020188555050505b505050505050565b6105ca81610234565b82525050565b60006020820190506105e560008301846105c1565b92915050565b61268b806105fa6000396000f3fe608060405234801561001057600080fd5b50600436106101165760003560e01c8063715018a6116100a2578063b88d4fde11610071578063b88d4fde146102cd578063bb721aab146102e9578063c87b56dd14610305578063e985e9c514610335578063f2fde38b1461036557610116565b8063715018a61461026b5780638da5cb5b1461027557806395d89b4114610293578063a22cb465146102b157610116565b806317d70f7c116100e957806317d70f7c146101b557806323b872dd146101d357806342842e0e146101ef5780636352211e1461020b57806370a082311461023b57610116565b806301ffc9a71461011b57806306fdde031461014b578063081812fc14610169578063095ea7b314610199575b600080fd5b61013560048036038101906101309190611ae3565b610381565b6040516101429190611b2b565b60405180910390f35b6101536103e2565b6040516101609190611bd6565b60405180910390f35b610183600480360381019061017e9190611c2e565b610474565b6040516101909190611c9c565b60405180910390f35b6101b360048036038101906101ae9190611ce3565b610490565b005b6101bd6104a6565b6040516101ca9190611d32565b60405180910390f35b6101ed60048036038101906101e89190611d4d565b6104ac565b005b61020960048036038101906102049190611d4d565b6105ae565b005b61022560048036038101906102209190611c2e565b6105ce565b6040516102329190611c9c565b60405180910390f35b61025560048036038101906102509190611da0565b6105e0565b6040516102629190611d32565b60405180910390f35b61027361069a565b005b61027d6106ae565b60405161028a9190611c9c565b60405180910390f35b61029b6106d8565b6040516102a89190611bd6565b60405180910390f35b6102cb60048036038101906102c69190611df9565b61076a565b005b6102e760048036038101906102e29190611f6e565b610780565b005b61030360048036038101906102fe9190612092565b6107a5565b005b61031f600480360381019061031a9190611c2e565b6107d9565b60405161032c9190611bd6565b60405180910390f35b61034f600480360381019061034a91906120ee565b6108ec565b60405161035c9190611b2b565b60405180910390f35b61037f600480360381019061037a9190611da0565b610980565b005b6000634906490660e01b7bffffffffffffffffffffffffffffffffffffffffffffffffffffffff1916827bffffffffffffffffffffffffffffffffffffffffffffffffffffffff191614806103db57506103da82610a06565b5b9050919050565b6060600080546103f19061215d565b80601f016020809104026020016040519081016040528092919081815260200182805461041d9061215d565b801561046a5780601f1061043f5761010080835404028352916020019161046a565b820191906000526020600020905b81548152906001019060200180831161044d57829003601f168201915b5050505050905090565b600061047f82610ae8565b5061048982610b70565b9050919050565b6104a2828261049d610bad565b610bb5565b5050565b60085481565b600073ffffffffffffffffffffffffffffffffffffffff168273ffffffffffffffffffffffffffffffffffffffff160361051e5760006040517f64a0ae920000000000000000000000000000000000000000000000000000000081526004016105159190611c9c565b60405180910390fd5b6000610532838361052d610bad565b610bc7565b90508373ffffffffffffffffffffffffffffffffffffffff168173ffffffffffffffffffffffffffffffffffffffff16146105a8578382826040517f64283d7b00000000000000000000000000000000000000000000000000000000815260040161059f9392919061218e565b60405180910390fd5b50505050565b6105c983838360405180602001604052806000815250610780565b505050565b60006105d982610ae8565b9050919050565b60008073ffffffffffffffffffffffffffffffffffffffff168273ffffffffffffffffffffffffffffffffffffffff16036106535760006040517f89c62b6400000000000000000000000000000000000000000000000000000000815260040161064a9190611c9c565b60405180910390fd5b600360008373ffffffffffffffffffffffffffffffffffffffff1673ffffffffffffffffffffffffffffffffffffffff168152602001908152602001600020549050919050565b6106a2610de1565b6106ac6000610e68565b565b6000600760009054906101000a900473ffffffffffffffffffffffffffffffffffffffff16905090565b6060600180546106e79061215d565b80601f01602080910402602001604051908101604052809291908181526020018280546107139061215d565b80156107605780601f1061073557610100808354040283529160200191610760565b820191906000526020600020905b81548152906001019060200180831161074357829003601f168201915b5050505050905090565b61077c610775610bad565b8383610f2e565b5050565b61078b8484846104ac565b61079f610796610bad565b8585858561109d565b50505050565b600860008154809291906107b8906121f4565b91905055506107c98260085461124e565b6107d56008548261126c565b5050565b60606107e482610ae8565b5060006006600084815260200190815260200160002080546108059061215d565b80601f01602080910402602001604051908101604052809291908181526020018280546108319061215d565b801561087e5780601f106108535761010080835404028352916020019161087e565b820191906000526020600020905b81548152906001019060200180831161086157829003601f168201915b50505050509050600061088f6112c8565b905060008151036108a45781925050506108e7565b6000825111156108d95780826040516020016108c1929190612278565b604051602081830303815290604052925050506108e7565b6108e2846112df565b925050505b919050565b6000600560008473ffffffffffffffffffffffffffffffffffffffff1673ffffffffffffffffffffffffffffffffffffffff16815260200190815260200160002060008373ffffffffffffffffffffffffffffffffffffffff1673ffffffffffffffffffffffffffffffffffffffff16815260200190815260200160002060009054906101000a900460ff16905092915050565b610988610de1565b600073ffffffffffffffffffffffffffffffffffffffff168173ffffffffffffffffffffffffffffffffffffffff16036109fa5760006040517f1e4fbdf70000000000000000000000000000000000000000000000000000000081526004016109f19190611c9c565b60405180910390fd5b610a0381610e68565b50565b60007f80ac58cd000000000000000000000000000000000000000000000000000000007bffffffffffffffffffffffffffffffffffffffffffffffffffffffff1916827bffffffffffffffffffffffffffffffffffffffffffffffffffffffff19161480610ad157507f5b5e139f000000000000000000000000000000000000000000000000000000007bffffffffffffffffffffffffffffffffffffffffffffffffffffffff1916827bffffffffffffffffffffffffffffffffffffffffffffffffffffffff1916145b80610ae15750610ae082611348565b5b9050919050565b600080610af4836113b2565b9050600073ffffffffffffffffffffffffffffffffffffffff168173ffffffffffffffffffffffffffffffffffffffff1603610b6757826040517f7e273289000000000000000000000000000000000000000000000000000000008152600401610b5e9190611d32565b60405180910390fd5b80915050919050565b60006004600083815260200190815260200160002060009054906101000a900473ffffffffffffffffffffffffffffffffffffffff169050919050565b600033905090565b610bc283838360016113ef565b505050565b600080610bd3846113b2565b9050600073ffffffffffffffffffffffffffffffffffffffff168373ffffffffffffffffffffffffffffffffffffffff1614610c1557610c148184866115b4565b5b600073ffffffffffffffffffffffffffffffffffffffff168173ffffffffffffffffffffffffffffffffffffffff1614610ca657610c576000856000806113ef565b6001600360008373ffffffffffffffffffffffffffffffffffffffff1673ffffffffffffffffffffffffffffffffffffffff168152602001908152602001600020600082825403925050819055505b600073ffffffffffffffffffffffffffffffffffffffff168573ffffffffffffffffffffffffffffffffffffffff1614610d29576001600360008773ffffffffffffffffffffffffffffffffffffffff1673ffffffffffffffffffffffffffffffffffffffff168152602001908152602001600020600082825401925050819055505b846002600086815260200190815260200160002060006101000a81548173ffffffffffffffffffffffffffffffffffffffff021916908373ffffffffffffffffffffffffffffffffffffffff160217905550838573ffffffffffffffffffffffffffffffffffffffff168273ffffffffffffffffffffffffffffffffffffffff167fddf252ad1be2c89b69c2b068fc378daa952ba7f163c4a11628f55a4df523b3ef60405160405180910390a4809150509392505050565b610de9610bad565b73ffffffffffffffffffffffffffffffffffffffff16610e076106ae565b73ffffffffffffffffffffffffffffffffffffffff1614610e6657610e2a610bad565b6040517f118cdaa7000000000000000000000000000000000000000000000000000000008152600401610e5d9190611c9c565b60405180910390fd5b565b6000600760009054906101000a900473ffffffffffffffffffffffffffffffffffffffff16905081600760006101000a81548173ffffffffffffffffffffffffffffffffffffffff021916908373ffffffffffffffffffffffffffffffffffffffff1602179055508173ffffffffffffffffffffffffffffffffffffffff168173ffffffffffffffffffffffffffffffffffffffff167f8be0079c531659141344cd1fd0a4f28419497f9722a3daafe3b4186f6b6457e060405160405180910390a35050565b600073ffffffffffffffffffffffffffffffffffffffff168273ffffffffffffffffffffffffffffffffffffffff1603610f9f57816040517f5b08ba18000000000000000000000000000000000000000000000000000000008152600401610f969190611c9c565b60405180910390fd5b80600560008573ffffffffffffffffffffffffffffffffffffffff1673ffffffffffffffffffffffffffffffffffffffff16815260200190815260200160002060008473ffffffffffffffffffffffffffffffffffffffff1673ffffffffffffffffffffffffffffffffffffffff16815260200190815260200160002060006101000a81548160ff0219169083151502179055508173ffffffffffffffffffffffffffffffffffffffff168373ffffffffffffffffffffffffffffffffffffffff167f17307eab39ab6107e8899845ad3d59bd9653f200f220920489ca2b5937696c31836040516110909190611b2b565b60405180910390a3505050565b60008373ffffffffffffffffffffffffffffffffffffffff163b1115611247578273ffffffffffffffffffffffffffffffffffffffff1663150b7a02868685856040518563ffffffff1660e01b81526004016110fc94939291906122f1565b6020604051808303816000875af192505050801561113857506040513d601f19601f820116820180604052508101906111359190612352565b60015b6111bc573d8060008114611168576040519150601f19603f3d011682016040523d82523d6000602084013e61116d565b606091505b5060008151036111b457836040517f64a0ae920000000000000000000000000000000000000000000000000000000081526004016111ab9190611c9c565b60405180910390fd5b805181602001fd5b63150b7a0260e01b7bffffffffffffffffffffffffffffffffffffffffffffffffffffffff1916817bffffffffffffffffffffffffffffffffffffffffffffffffffffffff19161461124557836040517f64a0ae9200000000000000000000000000000000000000000000000000000000815260040161123c9190611c9c565b60405180910390fd5b505b5050505050565b611268828260405180602001604052806000815250611678565b5050565b8060066000848152602001908152602001600020908161128c919061252b565b507ff8e1a15aba9398e019f0b49df1a4fde98ee17ae345cb5f6b5e2c27f5033e8ce7826040516112bc9190611d32565b60405180910390a15050565b606060405180602001604052806000815250905090565b60606112ea82610ae8565b5060006112f56112c8565b905060008151116113155760405180602001604052806000815250611340565b8061131f8461169c565b604051602001611330929190612278565b6040516020818303038152906040525b915050919050565b60007f01ffc9a7000000000000000000000000000000000000000000000000000000007bffffffffffffffffffffffffffffffffffffffffffffffffffffffff1916827bffffffffffffffffffffffffffffffffffffffffffffffffffffffff1916149050919050565b60006002600083815260200190815260200160002060009054906101000a900473ffffffffffffffffffffffffffffffffffffffff169050919050565b80806114285750600073ffffffffffffffffffffffffffffffffffffffff168273ffffffffffffffffffffffffffffffffffffffff1614155b1561155c57600061143884610ae8565b9050600073ffffffffffffffffffffffffffffffffffffffff168373ffffffffffffffffffffffffffffffffffffffff16141580156114a357508273ffffffffffffffffffffffffffffffffffffffff168173ffffffffffffffffffffffffffffffffffffffff1614155b80156114b657506114b481846108ec565b155b156114f857826040517fa9fbf51f0000000000000000000000000000000000000000000000000000000081526004016114ef9190611c9c565b60405180910390fd5b811561155a57838573ffffffffffffffffffffffffffffffffffffffff168273ffffffffffffffffffffffffffffffffffffffff167f8c5be1e5ebec7d5bd14f71427d1e84f3dd0314c0f7b2291e5b200ac8c7c3b92560405160405180910390a45b505b836004600085815260200190815260200160002060006101000a81548173ffffffffffffffffffffffffffffffffffffffff021916908373ffffffffffffffffffffffffffffffffffffffff16021790555050505050565b6115bf83838361176a565b61167357600073ffffffffffffffffffffffffffffffffffffffff168373ffffffffffffffffffffffffffffffffffffffff160361163457806040517f7e27328900000000000000000000000000000000000000000000000000000000815260040161162b9190611d32565b60405180910390fd5b81816040517f177e802f00000000000000000000000000000000000000000000000000000000815260040161166a9291906125fd565b60405180910390fd5b505050565b611682838361182b565b61169761168d610bad565b600085858561109d565b505050565b6060600060016116ab84611924565b01905060008167ffffffffffffffff8111156116ca576116c9611e43565b5b6040519080825280601f01601f1916602001820160405280156116fc5781602001600182028036833780820191505090505b509050600082602001820190505b60011561175f578080600190039150507f3031323334353637383961626364656600000000000000000000000000000000600a86061a8153600a858161175357611752612626565b5b0494506000850361170a575b819350505050919050565b60008073ffffffffffffffffffffffffffffffffffffffff168373ffffffffffffffffffffffffffffffffffffffff161415801561182257508273ffffffffffffffffffffffffffffffffffffffff168473ffffffffffffffffffffffffffffffffffffffff1614806117e357506117e284846108ec565b5b8061182157508273ffffffffffffffffffffffffffffffffffffffff1661180983610b70565b73ffffffffffffffffffffffffffffffffffffffff16145b5b90509392505050565b600073ffffffffffffffffffffffffffffffffffffffff168273ffffffffffffffffffffffffffffffffffffffff160361189d5760006040517f64a0ae920000000000000000000000000000000000000000000000000000000081526004016118949190611c9c565b60405180910390fd5b60006118ab83836000610bc7565b9050600073ffffffffffffffffffffffffffffffffffffffff168173ffffffffffffffffffffffffffffffffffffffff161461191f5760006040517f73c6ac6e0000000000000000000000000000000000000000000000000000000081526004016119169190611c9c565b60405180910390fd5b505050565b600080600090507a184f03e93ff9f4daa797ed6e38ed64bf6a1f0100000000000000008310611982577a184f03e93ff9f4daa797ed6e38ed64bf6a1f010000000000000000838161197857611977612626565b5b0492506040810190505b6d04ee2d6d415b85acef810000000083106119bf576d04ee2d6d415b85acef810000000083816119b5576119b4612626565b5b0492506020810190505b662386f26fc1000083106119ee57662386f26fc1000083816119e4576119e3612626565b5b0492506010810190505b6305f5e1008310611a17576305f5e1008381611a0d57611a0c612626565b5b0492506008810190505b6127108310611a3c576127108381611a3257611a31612626565b5b0492506004810190505b60648310611a5f5760648381611a5557611a54612626565b5b0492506002810190505b600a8310611a6e576001810190505b80915050919050565b6000604051905090565b600080fd5b600080fd5b60007fffffffff0000000000000000000000000000000000000000000000000000000082169050919050565b611ac081611a8b565b8114611acb57600080fd5b50565b600081359050611add81611ab7565b92915050565b600060208284031215611af957611af8611a81565b5b6000611b0784828501611ace565b91505092915050565b60008115159050919050565b611b2581611b10565b82525050565b6000602082019050611b406000830184611b1c565b92915050565b600081519050919050565b600082825260208201905092915050565b60005b83811015611b80578082015181840152602081019050611b65565b60008484015250505050565b6000601f19601f8301169050919050565b6000611ba882611b46565b611bb28185611b51565b9350611bc2818560208601611b62565b611bcb81611b8c565b840191505092915050565b60006020820190508181036000830152611bf08184611b9d565b905092915050565b6000819050919050565b611c0b81611bf8565b8114611c1657600080fd5b50565b600081359050611c2881611c02565b92915050565b600060208284031215611c4457611c43611a81565b5b6000611c5284828501611c19565b91505092915050565b600073ffffffffffffffffffffffffffffffffffffffff82169050919050565b6000611c8682611c5b565b9050919050565b611c9681611c7b565b82525050565b6000602082019050611cb16000830184611c8d565b92915050565b611cc081611c7b565b8114611ccb57600080fd5b50565b600081359050611cdd81611cb7565b92915050565b60008060408385031215611cfa57611cf9611a81565b5b6000611d0885828601611cce565b9250506020611d1985828601611c19565b9150509250929050565b611d2c81611bf8565b82525050565b6000602082019050611d476000830184611d23565b92915050565b600080600060608486031215611d6657611d65611a81565b5b6000611d7486828701611cce565b9350506020611d8586828701611cce565b9250506040611d9686828701611c19565b9150509250925092565b600060208284031215611db657611db5611a81565b5b6000611dc484828501611cce565b91505092915050565b611dd681611b10565b8114611de157600080fd5b50565b600081359050611df381611dcd565b92915050565b60008060408385031215611e1057611e0f611a81565b5b6000611e1e85828601611cce565b9250506020611e2f85828601611de4565b9150509250929050565b600080fd5b600080fd5b7f4e487b7100000000000000000000000000000000000000000000000000000000600052604160045260246000fd5b611e7b82611b8c565b810181811067ffffffffffffffff82111715611e9a57611e99611e43565b5b80604052505050565b6000611ead611a77565b9050611eb98282611e72565b919050565b600067ffffffffffffffff821115611ed957611ed8611e43565b5b611ee282611b8c565b9050602081019050919050565b82818337600083830152505050565b6000611f11611f0c84611ebe565b611ea3565b905082815260208101848484011115611f2d57611f2c611e3e565b5b611f38848285611eef565b509392505050565b600082601f830112611f5557611f54611e39565b5b8135611f65848260208601611efe565b91505092915050565b60008060008060808587031215611f8857611f87611a81565b5b6000611f9687828801611cce565b9450506020611fa787828801611cce565b9350506040611fb887828801611c19565b925050606085013567ffffffffffffffff811115611fd957611fd8611a86565b5b611fe587828801611f40565b91505092959194509250565b600067ffffffffffffffff82111561200c5761200b611e43565b5b61201582611b8c565b9050602081019050919050565b600061203561203084611ff1565b611ea3565b90508281526020810184848401111561205157612050611e3e565b5b61205c848285611eef565b509392505050565b600082601f83011261207957612078611e39565b5b8135612089848260208601612022565b91505092915050565b600080604083850312156120a9576120a8611a81565b5b60006120b785828601611cce565b925050602083013567ffffffffffffffff8111156120d8576120d7611a86565b5b6120e485828601612064565b9150509250929050565b6000806040838503121561210557612104611a81565b5b600061211385828601611cce565b925050602061212485828601611cce565b9150509250929050565b7f4e487b7100000000000000000000000000000000000000000000000000000000600052602260045260246000fd5b6000600282049050600182168061217557607f821691505b6020821081036121885761218761212e565b5b50919050565b60006060820190506121a36000830186611c8d565b6121b06020830185611d23565b6121bd6040830184611c8d565b949350505050565b7f4e487b7100000000000000000000000000000000000000000000000000000000600052601160045260246000fd5b60006121ff82611bf8565b91507fffffffffffffffffffffffffffffffffffffffffffffffffffffffffffffffff8203612231576122306121c5565b5b600182019050919050565b600081905092915050565b600061225282611b46565b61225c818561223c565b935061226c818560208601611b62565b80840191505092915050565b60006122848285612247565b91506122908284612247565b91508190509392505050565b600081519050919050565b600082825260208201905092915050565b60006122c38261229c565b6122cd81856122a7565b93506122dd818560208601611b62565b6122e681611b8c565b840191505092915050565b60006080820190506123066000830187611c8d565b6123136020830186611c8d565b6123206040830185611d23565b818103606083015261233281846122b8565b905095945050505050565b60008151905061234c81611ab7565b92915050565b60006020828403121561236857612367611a81565b5b60006123768482850161233d565b91505092915050565b60008190508160005260206000209050919050565b60006020601f8301049050919050565b600082821b905092915050565b6000600883026123e17fffffffffffffffffffffffffffffffffffffffffffffffffffffffffffffffff826123a4565b6123eb86836123a4565b95508019841693508086168417925050509392505050565b6000819050919050565b600061242861242361241e84611bf8565b612403565b611bf8565b9050919050565b6000819050919050565b6124428361240d565b61245661244e8261242f565b8484546123b1565b825550505050565b600090565b61246b61245e565b612476818484612439565b505050565b5b8181101561249a5761248f600082612463565b60018101905061247c565b5050565b601f8211156124df576124b08161237f565b6124b984612394565b810160208510156124c8578190505b6124dc6124d485612394565b83018261247b565b50505b505050565b600082821c905092915050565b6000612502600019846008026124e4565b1980831691505092915050565b600061251b83836124f1565b9150826002028217905092915050565b61253482611b46565b67ffffffffffffffff81111561254d5761254c611e43565b5b612557825461215d565b61256282828561249e565b600060209050601f8311600181146125955760008415612583578287015190505b61258d858261250f565b8655506125f5565b601f1984166125a38661237f565b60005b828110156125cb578489015182556001820191506020850194506020810190506125a6565b868310156125e857848901516125e4601f8916826124f1565b8355505b6001600288020188555050505b505050505050565b60006040820190506126126000830185611c8d565b61261f6020830184611d23565b9392505050565b7f4e487b7100000000000000000000000000000000000000000000000000000000600052601260045260246000fdfea264697066735822122092da7dddc18e9ba6b588816b5241e6b6f2a64fb55de0751375656c1fce43b10564736f6c634300081c0033",
  "linkReferences": {},
  "deployedLinkReferences": {}
}